{"address":"0x9fE46736679d2D9a65F0992F2272dE9f3c7fa6e0","bytecode":"0x608060405234801561001057600080fd5b50613076806100206000396000f3fe60806040523480156200001157600080fd5b5060043610620000525760003560e01c80637e4115ba1462000057578063dfee57171462000086578063e43cb27014620000ac578063e5c2337414620000c3575b600080fd5b6200006e62000068366004620004c5565b620000cd565b6040516200007d919062000597565b60405180910390f35b6200009d6200009736600462000495565b620000f3565b6040516200007d9190620005e1565b6200006e620000bd36600462000504565b62000169565b6200009d62000374565b80516020818301810180516001825292820191909301209152546001600160a01b031681565b6001600160a01b038116600090815260208181526040918290208054835181840281018401909452808452606093928301828280156200015d57602002820191906000526020600020905b81546001600160a01b031681526001909101906020018083116200013e575b50505050509050919050565b6000806001600160a01b031660018460405162000187919062000579565b908152604051908190036020019020546001600160a01b03161115620001da57600183604051620001b9919062000579565b908152604051908190036020019020546001600160a01b031690506200036e565b6000308484604051620001ed90620003fe565b620001fb93929190620005ab565b604051809103906000f08015801562000218573d6000803e3d6000fd5b50600060208181527fad3228b676f7d3cd4284a5443f17f1962b36e491b30a40b2405849e597ba5fb5805460018181019092557ff0df3dcda05b4fbd9c655cde3d5ceb211e019e72ec816e127a59e7195f2cd7f50180546001600160a01b0386166001600160a01b0319918216811790925533808652604086208054948501815586529390942090910180549093161790915590915081903214620002ee57326000908152602081815260408220805460018101825590835291200180546001600160a01b0319166001600160a01b0383161790555b8060018660405162000301919062000579565b90815260405190819003602001812080546001600160a01b03939093166001600160a01b0319909316929092179091557f10d047031611691941b661f2160741619b4030812eb79997f4b3734ed5605a439062000362908790849062000630565b60405180910390a19150505b92915050565b600080805260209081527fad3228b676f7d3cd4284a5443f17f1962b36e491b30a40b2405849e597ba5fb58054604080518285028101850190915281815260609390929190830182828015620003f457602002820191906000526020600020905b81546001600160a01b03168152600190910190602001808311620003d5575b5050505050905090565b61299b80620006a683390190565b600082601f8301126200041d578081fd5b813567ffffffffffffffff808211156200043b576200043b6200068f565b604051601f8301601f1916810160200182811182821017156200046257620004626200068f565b6040528281528483016020018610156200047a578384fd5b82602086016020830137918201602001929092529392505050565b600060208284031215620004a7578081fd5b81356001600160a01b0381168114620004be578182fd5b9392505050565b600060208284031215620004d7578081fd5b813567ffffffffffffffff811115620004ee578182fd5b620004fc848285016200040c565b949350505050565b6000806040838503121562000517578081fd5b823567ffffffffffffffff8111156200052e578182fd5b6200053c858286016200040c565b95602094909401359450505050565b60008151808452620005658160208601602086016200065c565b601f01601f19169290920160200192915050565b600082516200058d8184602087016200065c565b9190910192915050565b6001600160a01b0391909116815260200190565b6001600160a01b0384168152606060208201819052600090620005d1908301856200054b565b9050826040830152949350505050565b6020808252825182820181905260009190848201906040850190845b81811015620006245783516001600160a01b031683529284019291840191600101620005fd565b50909695505050505050565b6000604082526200064560408301856200054b565b905060018060a01b03831660208301529392505050565b60005b83811015620006795781810151838201526020016200065f565b8381111562000689576000848401525b50505050565b634e487b7160e01b600052604160045260246000fdfe60806040523480156200001157600080fd5b506040516200299b3803806200299b8339810160408190526200003491620003f8565b600280546001600160a01b0319163217905581516200005b90600790602085019062000315565b50600a80546001600160a01b0319166001600160a01b03851617905560408051808201909152600580825264169bdb995960da1b6020909201918252620000a59160099162000315565b50600f81905532600081815260116020908152604080832085905584835260108252822080546001818101835591845291832090910180546001600160a01b031916909317909255600b819055600c819055600d8290556200010991819062000112565b50505062000628565b600f5432600090815260116020526040902054146200014e5760405162461bcd60e51b81526004016200014590620004f3565b60405180910390fd5b600b839055600c829055600d8190556200016762000183565b80516200017d91600e91602090910190620003a4565b50505050565b60408051600680825260e08201909252606091600091906020820160c080368337019050509050600060015b600f5481116200027957600d5481600c54620001cc91906200057f565b8283600b54620001dd91906200057f565b620001e991906200057f565b620001f5919062000543565b62000201919062000543565b8382815181106200022257634e487b7160e01b600052603260045260246000fd5b6020026020010181815250508281815181106200024f57634e487b7160e01b600052603260045260246000fd5b60200260200101518262000264919062000543565b91506200027181620005de565b9050620001af565b5060005b82518110156200030d5781838281518110620002a957634e487b7160e01b600052603260045260246000fd5b6020026020010151612710620002c091906200057f565b620002cc91906200055e565b838281518110620002ed57634e487b7160e01b600052603260045260246000fd5b6020908102919091010152806200030481620005de565b9150506200027d565b509091505090565b8280546200032390620005a1565b90600052602060002090601f01602090048101928262000347576000855562000392565b82601f106200036257805160ff191683800117855562000392565b8280016001018555821562000392579182015b828111156200039257825182559160200191906001019062000375565b50620003a0929150620003e1565b5090565b8280548282559060005260206000209081019282156200039257916020028201828111156200039257825182559160200191906001019062000375565b5b80821115620003a05760008155600101620003e2565b6000806000606084860312156200040d578283fd5b83516001600160a01b038116811462000424578384fd5b602085810151919450906001600160401b038082111562000443578485fd5b818701915087601f83011262000457578485fd5b8151818111156200046c576200046c62000612565b604051601f8201601f191681018501838111828210171562000492576200049262000612565b60405281815283820185018a1015620004a9578687fd5b8692505b81831015620004cc5783830185015181840186015291840191620004ad565b81831115620004dd57868583830101525b8096505050505050604084015190509250925092565b60208082526030908201527f6f6e6c7920636f7265206d656d626572732063616e206368616e67652074686560408201526f103932bbb0b93210333ab731ba34b7b760811b606082015260800190565b60008219821115620005595762000559620005fc565b500190565b6000826200057a57634e487b7160e01b81526012600452602481fd5b500490565b60008160001904831182151516156200059c576200059c620005fc565b500290565b600281046001821680620005b657607f821691505b60208210811415620005d857634e487b7160e01b600052602260045260246000fd5b50919050565b6000600019821415620005f557620005f5620005fc565b5060010190565b634e487b7160e01b600052601160045260246000fd5b634e487b7160e01b600052604160045260246000fd5b61236380620006386000396000f3fe6080604052600436106101c65760003560e01c806361c72e51116100f7578063b6afd2ca11610095578063ead6252011610064578063ead62520146104d4578063f301af42146104f4578063f59e4f6514610514578063f5baf0d714610529576101d8565b8063b6afd2ca14610475578063c127c2471461048a578063c3da42b8146104aa578063de8fa431146104bf576101d8565b80638306071b116100d15780638306071b146103e8578063a230c52414610408578063a6f9dae114610435578063acf36e5314610455576101d8565b806361c72e51146103885780637e4115ba146103a857806381bc3f8c146103c8576101d8565b806329b84d09116101645780633e50de301161013e5780633e50de301461031c57806345ca25ed1461033e5780634df7e3d01461035e57806354fd4d5014610373576101d8565b806329b84d09146102c55780633113a2ae146102e557806333d6e65f14610307576101d8565b80630babba86116101a05780630babba86146102505780630dbe671f146102705780630f9fd8871461029257806321670f22146102b2576101d8565b806302d05d3f146101e357806306fdde031461020e5780630b1ca49a14610230576101d8565b366101d8576101d660003461053e565b005b6101d660003461053e565b3480156101ef57600080fd5b506101f86109a3565b6040516102059190611d4c565b60405180910390f35b34801561021a57600080fd5b506102236109b2565b6040516102059190611ec1565b34801561023c57600080fd5b506101d661024b3660046119b8565b610a40565b34801561025c57600080fd5b506101f861026b366004611ac9565b610c07565b34801561027c57600080fd5b50610285610c9f565b60405161020591906121f0565b34801561029e57600080fd5b506101d66102ad366004611bc6565b610ca5565b6101d66102c0366004611a3e565b61053e565b3480156102d157600080fd5b506101d66102e0366004611a89565b610d06565b3480156102f157600080fd5b506102fa610d41565b6040516102059190611df7565b34801561031357600080fd5b50610285610da3565b34801561032857600080fd5b50610331610da9565b6040516102059190611e44565b34801561034a57600080fd5b506101d66103593660046119f0565b610f1f565b34801561036a57600080fd5b50610285611019565b34801561037f57600080fd5b5061022361101f565b34801561039457600080fd5b506101d66103a3366004611a3e565b61102c565b3480156103b457600080fd5b506101f86103c3366004611b3a565b611262565b3480156103d457600080fd5b506102236103e33660046119b8565b611288565b3480156103f457600080fd5b506102856104033660046119b8565b6112a1565b34801561041457600080fd5b506104286104233660046119b8565b6112b3565b6040516102059190611e7c565b34801561044157600080fd5b506101d66104503660046119b8565b6112c8565b34801561046157600080fd5b506101d66104703660046119b8565b611314565b34801561048157600080fd5b506102fa611365565b34801561049657600080fd5b506101d66104a53660046119f0565b6113c5565b3480156104b657600080fd5b506102856116dd565b3480156104cb57600080fd5b506102856116e3565b3480156104e057600080fd5b506101f86104ef366004611ba5565b6116e9565b34801561050057600080fd5b5061028561050f366004611b75565b611721565b34801561052057600080fd5b50610223611742565b34801561053557600080fd5b5061022361174f565b60008060003411801561055857506001600160a01b038416155b156105695734925060019150610611565b506040516370a0823160e01b8152839083906001600160a01b038316906370a082319061059a903090600401611d4c565b60206040518083038186803b1580156105b257600080fd5b505afa1580156105c6573d6000803e3d6000fd5b505050506040513d601f19601f820116820180604052508101906105ea9190611b8d565b10156106115760405162461bcd60e51b8152600401610608906120bf565b60405180910390fd5b600060015b600f54811161099b57600081815260106020526040902054156109895760008181526010602052604090205461064c828761175c565b6106569190612211565b915060005b60008281526010602052604090205481101561098757821561097557841561073a5760008281526010602052604081208054839081106106ab57634e487b7160e01b600052603260045260246000fd5b6000918252602090912001546040516001600160a01b039091169085906106d190611d49565b60006040518083038185875af1925050503d806000811461070e576040519150601f19603f3d011682016040523d82523d6000602084013e610713565b606091505b50509050806107345760405162461bcd60e51b815260040161060890611f02565b506108f7565b600082815260106020526040902080546001600160a01b0386169163a9059cbb918490811061077957634e487b7160e01b600052603260045260246000fd5b6000918252602090912001546040516001600160e01b031960e084901b1681526107b1916001600160a01b0316908790600401611dde565b602060405180830381600087803b1580156107cb57600080fd5b505af11580156107df573d6000803e3d6000fd5b505050506040513d601f19601f820116820180604052508101906108039190611a69565b50600082815260106020526040812080548390811061083257634e487b7160e01b600052603260045260246000fd5b6000918252602090912001546040516001600160a01b039091169061085d908a908790602401611dde565b60408051601f198184030181529181526020820180516001600160e01b03166310b3879160e11b179052516108929190611cbe565b6000604051808303816000865af19150503d80600081146108cf576040519150601f19603f3d011682016040523d82523d6000602084013e6108d4565b606091505b50509050806108f55760405162461bcd60e51b815260040161060890611f62565b505b600082815260106020526040902080547f04481a311a9d6c25d5003a3df0e3a0b58e5647e088a39de363764e28532a78b791908390811061094857634e487b7160e01b600052603260045260246000fd5b60009182526020909120015460405161096c916001600160a01b0316908690611da8565b60405180910390a15b8061097f816122ce565b91505061065b565b505b80610993816122ce565b915050610616565b505050505050565b600a546001600160a01b031681565b600780546109bf90612293565b80601f01602080910402602001604051908101604052809291908181526020018280546109eb90612293565b8015610a385780601f10610a0d57610100808354040283529160200191610a38565b820191906000526020600020905b815481529060010190602001808311610a1b57829003601f168201915b505050505081565b6002546001600160a01b03163314610a6a5760405162461bcd60e51b8152600401610608906121a7565b60005b600054811015610ae957816001600160a01b031660008281548110610aa257634e487b7160e01b600052603260045260246000fd5b6000918252602090912001546001600160a01b03161415610ad75760008054634e487b7160e01b600052603260045260246000fd5b80610ae1816122ce565b915050610a6d565b506000805480610b0957634e487b7160e01b600052603160045260246000fd5b60008281526020808220830160001990810180546001600160a01b03191690559092019092556001600160a01b0383168252600481526040808320805460ff1916905560069091529081902090517f982d6fac85d22cbbe833f9fe4278a909ca0f3b24ecc8b1f10fe63736e3c7231391610b8591849190611d84565b60405180910390a16001600160a01b0381166000908152600660205260408082209051600591610bb491611cda565b908152604080516020928190038301812080546001600160a01b0319166001600160a01b0395861617905582810180835260008083529486168552600690935292209151610c039291906117a9565b5050565b600a546040516305d5dd4360e11b81526000916001600160a01b0316908190630babba8690610c42908a908a908a908a908a90600401611e87565b602060405180830381600087803b158015610c5c57600080fd5b505af1158015610c70573d6000803e3d6000fd5b505050506040513d601f19601f82011682018060405250810190610c9491906119d4565b979650505050505050565b600b5481565b600f543260009081526011602052604090205414610cd55760405162461bcd60e51b815260040161060890611fa4565b600b839055600c829055600d819055610cec610da9565b8051610d0091600e9160209091019061182d565b50505050565b6002546001600160a01b03163314610d305760405162461bcd60e51b815260040161060890611ff4565b610d3c60038383611867565b505050565b60606001805480602002602001604051908101604052809291908181526020018280548015610d9957602002820191906000526020600020905b81546001600160a01b03168152600190910190602001808311610d7b575b5050505050905090565b600f5481565b60408051600680825260e08201909252606091600091906020820160c080368337019050509050600060015b600f548111610e8d57600d5481600c54610def9190612231565b8283600b54610dfe9190612231565b610e089190612231565b610e1291906121f9565b610e1c91906121f9565b838281518110610e3c57634e487b7160e01b600052603260045260246000fd5b602002602001018181525050828181518110610e6857634e487b7160e01b600052603260045260246000fd5b602002602001015182610e7b91906121f9565b9150610e86816122ce565b9050610dd5565b5060005b8251811015610f175781838281518110610ebb57634e487b7160e01b600052603260045260246000fd5b6020026020010151612710610ed09190612231565b610eda9190612211565b838281518110610efa57634e487b7160e01b600052603260045260246000fd5b602090810291909101015280610f0f816122ce565b915050610e91565b509091505090565b6001600160a01b038216331480610f4057506002546001600160a01b031633145b80610f5357506001600160a01b03821632145b610f6f5760405162461bcd60e51b815260040161060890612155565b81600582604051610f809190611cbe565b908152604080516020928190038301812080546001600160a01b0319166001600160a01b039586161790559285166000908152600690925290207ffdcc9059d3426f73949b49e5d977553aa298184439da800d66f48959d9cc76b091610fe891908490611ed4565b60405180910390a16001600160a01b03821660009081526006602090815260409091208251610d3c928401906117a9565b600c5481565b600880546109bf90612293565b3360009081526011602052604090205481111561105b5760405162461bcd60e51b815260040161060890612100565b6001600160a01b03821660009081526011602052604090205415611215576001600160a01b038216600090815260116020526040812054905b6000828152601060205260409020548110156111c557600082815260106020526040902080546001600160a01b0386169190839081106110e457634e487b7160e01b600052603260045260246000fd5b6000918252602090912001546001600160a01b031614156111b3576000828152601060205260409020805461111b90600190612250565b8154811061113957634e487b7160e01b600052603260045260246000fd5b60009182526020808320909101548483526010909152604090912080546001600160a01b03909216918390811061118057634e487b7160e01b600052603260045260246000fd5b9060005260206000200160006101000a8154816001600160a01b0302191690836001600160a01b031602179055506111c5565b806111bd816122ce565b915050611094565b5060008181526010602052604090208054806111f157634e487b7160e01b600052603160045260246000fd5b600082815260209020810160001990810180546001600160a01b0319169055019055505b6001600160a01b03909116600081815260116020908152604080832085905593825260108152928120805460018101825590825292902090910180546001600160a01b0319169091179055565b80516020818301810180516005825292820191909301209152546001600160a01b031681565b600660205260009081526040902080546109bf90612293565b60116020526000908152604090205481565b60046020526000908152604090205460ff1681565b6002546001600160a01b031633146112f25760405162461bcd60e51b81526004016106089061205a565b600280546001600160a01b0319166001600160a01b0392909216919091179055565b6001805480820182556000919091527fb10e2d527612073b26eecdfd717e6a320cf44b4afac2b0732d9fcbe2b7fa0cf60180546001600160a01b0319166001600160a01b0392909216919091179055565b60606000805480602002602001604051908101604052809291908181526020018280548015610d99576020028201919060005260206000209081546001600160a01b03168152600190910190602001808311610d7b575050505050905090565b3360009081526004602052604090205460ff161515600114806113f257506002546001600160a01b031633145b61140e5760405162461bcd60e51b8152600401610608906121a7565b6001600160a01b03821660009081526004602052604090205460ff16156114475760405162461bcd60e51b815260040161060890612091565b60006001600160a01b03166005826040516114629190611cbe565b908152604051908190036020019020546001600160a01b0316146114985760405162461bcd60e51b81526004016106089061202b565b600080546001810182557f290decd9548b62a8d60345a988386fc84ba6bc95484008f6362f93160ef3e5630180546001600160a01b0319166001600160a01b038516908117909155815260066020908152604090912082516114fc928401906117a9565b508160058260405161150e9190611cbe565b90815260408051918290036020908101832080546001600160a01b039586166001600160a01b031990911617905592851660008181526004909452908320805460ff19166001179055606091611568903090602401611d4c565b60408051601f198184030181529181526020820180516001600160e01b031663acf36e5360e01b1790525161159d9190611cbe565b600060405180830381855afa9150503d80600081146115d8576040519150601f19603f3d011682016040523d82523d6000602084013e6115dd565b606091505b509092509050811561169e57836001600160a01b0316306040516024016116049190611d4c565b60408051601f198184030181529181526020820180516001600160e01b031663acf36e5360e01b179052516116399190611cbe565b6000604051808303816000865af19150503d8060008114611676576040519150601f19603f3d011682016040523d82523d6000602084013e61167b565b606091505b5050809250508161169e5760405162461bcd60e51b815260040161060890611f2b565b7f7c803c00251fe8138e27cfa8286be8d98625e5f6476ca6ca594f682362b7112084846040516116cf929190611d60565b60405180910390a150505050565b600d5481565b60005490565b6010602052816000526040600020818154811061170557600080fd5b6000918252602090912001546001600160a01b03169150829050565b600e818154811061173157600080fd5b600091825260209091200154905081565b600980546109bf90612293565b600380546109bf90612293565b600061271082600e858154811061178357634e487b7160e01b600052603260045260246000fd5b90600052602060002001546117989190612231565b6117a29190612211565b9392505050565b8280546117b590612293565b90600052602060002090601f0160209004810192826117d7576000855561181d565b82601f106117f057805160ff191683800117855561181d565b8280016001018555821561181d579182015b8281111561181d578251825591602001919060010190611802565b506118299291506118db565b5090565b82805482825590600052602060002090810192821561181d579160200282018281111561181d578251825591602001919060010190611802565b82805461187390612293565b90600052602060002090601f016020900481019282611895576000855561181d565b82601f106118ae5782800160ff1982351617855561181d565b8280016001018555821561181d579182015b8281111561181d5782358255916020019190600101906118c0565b5b8082111561182957600081556001016118dc565b60008083601f840112611901578182fd5b50813567ffffffffffffffff811115611918578182fd5b60208301915083602082850101111561193057600080fd5b9250929050565b600082601f830112611947578081fd5b813567ffffffffffffffff80821115611962576119626122ff565b604051601f8301601f191681016020018281118282101715611986576119866122ff565b60405282815284830160200186101561199d578384fd5b82602086016020830137918201602001929092529392505050565b6000602082840312156119c9578081fd5b81356117a281612315565b6000602082840312156119e5578081fd5b81516117a281612315565b60008060408385031215611a02578081fd5b8235611a0d81612315565b9150602083013567ffffffffffffffff811115611a28578182fd5b611a3485828601611937565b9150509250929050565b60008060408385031215611a50578182fd5b8235611a5b81612315565b946020939093013593505050565b600060208284031215611a7a578081fd5b815180151581146117a2578182fd5b60008060208385031215611a9b578182fd5b823567ffffffffffffffff811115611ab1578283fd5b611abd858286016118f0565b90969095509350505050565b600080600080600060608688031215611ae0578081fd5b853567ffffffffffffffff80821115611af7578283fd5b611b0389838a016118f0565b90975095506020880135915080821115611b1b578283fd5b50611b28888289016118f0565b96999598509660400135949350505050565b600060208284031215611b4b578081fd5b813567ffffffffffffffff811115611b61578182fd5b611b6d84828501611937565b949350505050565b600060208284031215611b86578081fd5b5035919050565b600060208284031215611b9e578081fd5b5051919050565b60008060408385031215611bb7578182fd5b50508035926020909101359150565b600080600060608486031215611bda578283fd5b505081359360208301359350604090920135919050565b60008284528282602086013780602084860101526020601f19601f85011685010190509392505050565b60008151808452611c33816020860160208601612267565b601f01601f19169290920160200192915050565b60008154611c5481612293565b808552602060018381168015611c715760018114611c8557611cb3565b60ff19851688840152604088019550611cb3565b866000528260002060005b85811015611cab5781548a8201860152908301908401611c90565b890184019650505b505050505092915050565b60008251611cd0818460208701612267565b9190910192915050565b6000808354611ce881612293565b60018281168015611d005760018114611d1157611d3d565b60ff19841687528287019450611d3d565b8786526020808720875b85811015611d345781548a820152908401908201611d1b565b50505082870194505b50929695505050505050565b90565b6001600160a01b0391909116815260200190565b6001600160a01b0383168152604060208201819052600090611b6d90830184611c1b565b6001600160a01b0383168152604060208201819052600090611b6d90830184611c47565b6001600160a01b0392909216825260606020830181905260059083015264045524332360dc1b6080830152604082015260a00190565b6001600160a01b03929092168252602082015260400190565b6020808252825182820181905260009190848201906040850190845b81811015611e385783516001600160a01b031683529284019291840191600101611e13565b50909695505050505050565b6020808252825182820181905260009190848201906040850190845b81811015611e3857835183529284019291840191600101611e60565b901515815260200190565b600060608252611e9b606083018789611bf1565b8281036020840152611eae818688611bf1565b9150508260408301529695505050505050565b6000602082526117a26020830184611c1b565b600060408252611ee76040830185611c47565b8281036020840152611ef98185611c1b565b95945050505050565b6020808252600f908201526e151c985b9cd9995c8819985a5b1959608a1b604082015260600190565b60208082526017908201527f4661696c656420746f2063726561746520706172656e74000000000000000000604082015260600190565b60208082526022908201527f556e61626c6520746f2063616c6c20746865207265776172642066756e63746960408201526137b760f11b606082015260800190565b60208082526030908201527f6f6e6c7920636f7265206d656d626572732063616e206368616e67652074686560408201526f103932bbb0b93210333ab731ba34b7b760811b606082015260800190565b6020808252601f908201527f4f6e6c79206f776e65722063616e2073657420746865206d616e696665737400604082015260600190565b6020808252601590820152742730b6b29034b99030b63932b0b23c903a30b5b2b760591b604082015260600190565b6020808252601f908201527f4f6e6c79206f776e65722063616e206368616e676520746865206f776e657200604082015260600190565b60208082526014908201527313595b58995c88185b1c9958591e48185919195960621b604082015260600190565b60208082526021908201527f4e6f7420656e6f75676820746f6b656e7320696e2074686520636f6e747261636040820152601d60fa1b606082015260800190565b60208082526035908201527f6d656d6265727320696e206c6f776572207a6f6e65732063616e6e6f742070726040820152746f6d6f746520746f20686967686572207a6f6e657360581b606082015260800190565b60208082526032908201527f4e616d65206368616e67652072657175657374206e6f742073656e742066726f604082015271369036b2b6b132b9103737b91037bbb732b960711b606082015260800190565b60208082526029908201527f52657175657374207375626d69747465642062792061206e6f6e2d6d656d626560408201526872206164647265737360b81b606082015260800190565b90815260200190565b6000821982111561220c5761220c6122e9565b500190565b60008261222c57634e487b7160e01b81526012600452602481fd5b500490565b600081600019048311821515161561224b5761224b6122e9565b500290565b600082821015612262576122626122e9565b500390565b60005b8381101561228257818101518382015260200161226a565b83811115610d005750506000910152565b6002810460018216806122a757607f821691505b602082108114156122c857634e487b7160e01b600052602260045260246000fd5b50919050565b60006000198214156122e2576122e26122e9565b5060010190565b634e487b7160e01b600052601160045260246000fd5b634e487b7160e01b600052604160045260246000fd5b6001600160a01b038116811461232a57600080fd5b5056fea26469706673582212202e6f049a7132bf241d7f1fe30955ec09655d164847010e902bb49b3fe358484264736f6c63430008000033a2646970667358221220957d3c58b076121b03035e74b298bdf36241f9f6c1092d710766d3d06fe5cab464736f6c63430008000033","abi":[{"anonymous":false,"inputs":[{"indexed":false,"internalType":"string","name":"name","type":"string"},{"indexed":false,"internalType":"address","name":"addr","type":"address"}],"name":"NewHolon","type":"event"},{"inputs":[],"name":"listHolons","outputs":[{"internalType":"address[]","name":"","type":"address[]"}],"stateMutability":"view","type":"function"},{"inputs":[{"internalType":"address","name":"_address","type":"address"}],"name":"listHolonsOf","outputs":[{"internalType":"address[]","name":"","type":"address[]"}],"stateMutability":"view","type":"function"},{"inputs":[{"internalType":"string","name":"_name","type":"string"},{"internalType":"uint256","name":"_parameter","type":"uint256"}],"name":"newHolon","outputs":[{"internalType":"address","name":"","type":"address"}],"stateMutability":"nonpayable","type":"function"},{"inputs":[{"internalType":"string","name":"","type":"string"}],"name":"toAddress","outputs":[{"internalType":"address","name":"","type":"address"}],"stateMutability":"view","type":"function"}]}